:1000000002006602204D010A32646402A25653DAED
:10001000DF320002A25C758F01220002A262AD07EE
:100020001FED6015E4FEEEC3940550F2E4FDE4F527
:10003000B10DEDB4FFF80E80ED2200029BC002006E
:1000400056000002A0CD000000000002A0E1000068
:1000500000000002A0F5439708439702E4900BCA02
:10006000F0220002000E78FFE4F6D8FD9000007F39
:10007000007E10E4F0A3DFFCDEFA75812B0200BBEA
:100080000279DDE493A3F8E493A34003F68001F240
:1000900008DFF48029E493A3F85407240CC8C33381
:1000A000C4540F4420C8834004F456800146F6DF50
:1000B000E4800B0102040810204080908F25E47E2C
:1000C000019360BCA3FF543F30E509541FFEE49345
:1000D000A360010ECF54C025E060A840B8E493A30C
:1000E000FAE493A3F8E493A3C8C582C8CAC583CA37
:1000F000F0A3C8C582C8CAC583CADFE9DEE780BEEF
:10010000900BD27411F0A3E4F0900BD2E0FEA3E0C8
:10011000FFF5828E83E0900BB0F08F828E83A3E098
:10012000900BB1F0900BD2A3E0F5828E83A3A3E0F5
:10013000900BB2F08F828E83A3A3A3E0900BB3F059
:10014000900BD2A3E02404F582E43EF583E0900B0B
:10015000B4F0EF2405F582E43EF583E0900BB5F0B2
:10016000900BD2A3E02406F582E43EF583E0900BE9
:10017000B6F0EF2407F582E43EF583E0900BB7F08C
:100180002212A22F7C007D151274A8AE04AF057454
:10019000D32FF582740A3EF583E0B4FF0C74D32F9D
:1001A000F582740A3EF583E4F0E4900B86F0900B40
:1001B00086E0FFC39415504474D32FF582E4340ACB
:1001C000F583E0900B87F0E0FFC39406400574FFD1
:1001D000F0800C900B861255DD900B87E004F090B8
:1001E0000B87E0FF900B86E024D3F582E4340AF518
:1001F00083EFF0900B86E004F00201AE22000000D5
:10020000900BD1E0FFB4041BE4F0A37411F0A3E45D
:10021000F0900BD2E0FCA3E0F5828C83E0900BC958
:1002200002055BEFB40607E4900BD102055B900B6F
:10023000D1E064096003020557900BCBE07004A382
:10024000E0640660030202F1900BD27411F0A3E4A3
:10025000F0900BD2E0FEA3E0FFF5828E83E0B405C0
:1002600010A3E0B4750BE4900BD1F012A2110205BB
:1002700055900BD2E0FEA3E0F5828E83E0B4051A20
:10028000A3E0B4A515D245900BD2A3E0F5828E83EE
:10029000A3A3E0900573F0020555900BD2E0FEA3F6
:1002A000E0F5828E83E0FDB40513A3E0B45A0EC2DC
:1002B00045E4900573F0D231D201020555ED640595
:1002C0006003020555900B9EF0900B9EE0FF900B93
:1002D000D2E0FCA3E02FF582E43CF583E0FE740855
:1002E0002FF8A606900B9EE004F0E0B408DB0205B0
:1002F00055C3900BCCE09408900BCBE094005003D6
:10030000020555900BC6E09408900BC5E094005090
:100310003E900BD27411F0A3E4F0900B9EF0900B82
:100320009EE0FF900BD2E0FCA3E02FF582E43CF5C9
:1003300083E0FE74082FF8A606900B9EE004F0E020
:10034000B408DB12A0B8900BC5E4F0A37408F090D9
:100350000BCBE064017004A3E0647E6003020471CF
:10036000900B9E7404F0900B9EE0FFC394085029FC
:1003700074082FF8E6FF900BACE0FCA3E0F5828C4C
:1003800083EFF0900BADE004F07006900BACE0044E
:10039000F0900B9EE004F080CDE4900B9FF0900B6A
:1003A000D27411F0A3E4F0900B9EF0900B9EE0FF4E
:1003B000C394085041900BD2E0FCA3E02FF582E4F7
:1003C0003CF583E0FF900BACE0FCA3E0F5828C836E
:1003D000EFF0900BADE004F07006900BACE004F091
:1003E000900BC6E004F07006900BC5E004F0900B93
:1003F0009EE004F080B512A0B8900B9FE004F0E0FE
:10040000C3942E4099900BD27411F0A3E4F0900B9A
:100410009EF0900B9EE0FFC394065041900BD2E0FB
:10042000FCA3E02FF582E43CF583E0FF900BACE009
:10043000FCA3E0F5828C83EFF0900BADE004F0704C
:1004400006900BACE004F0900BC6E004F070069050
:100450000BC5E004F0900B9EE004F080B5900BC556
:100460007401F0A3747EF0E4900BD1F0D25C02052D
:100470005CE4900B9FF0900BD27411F0A3E4F09029
:100480000B9EF0900B9EE0F9C394085040900BC671
:10049000E024F8FF900BC5E034FFFE900BD2E0FCA7
:1004A000A3E029F582E43CF583E0FD74A22FF582F8
:1004B00074063EF583EDF0900BC6E004F0700690F4
:1004C0000BC5E004F0900B9EE004F080B6900BC5E5
:1004D000E0FEA3E0FF900BCBE06E7003A3E06F7033
:1004E00062900BD1F0D22790067BF05380E353B09B
:1004F00084C28FC2FFF5C0129D747809E624FDB452
:100500000700503D90051275F003A4C58325F0C582
:10051000837302052702053302052E020533020507
:1005200033020533020535129537D23A8013E4F5CC
:10053000B1800B8009D201D231E490056CF0128DAC
:1005400041801912A0B8900B9FE004F0E0C39480A2
:1005500050030204768005E4900BD1F0539BF043E6
:10056000970422E4900B85F0304A0990063BF0A3F3
:10057000F002759830001EC3900354E094C89003B5
:1005800053E094005003020F5F7BFF7DFF7FFF125B
:10059000857E020F58900193E090896493FF900A42
:1005A000C7E0D39F4002EFF0900193E090899693CB
:1005B000FF900AC4E0D39F4002EFF0900193E0FC6B
:1005C000900194E0900B7DF0900AC4E0F9900AC786
:1005D000E0FA20312490056CE0B5041D900B7DE01D
:1005E000FF90056FE0B50711900694E0B5010A9001
:1005F000035CE06A7003020B1FC23190056CE06C73
:100600006004EC12A0A2900B7DE0FF90056FE06FFC
:10061000600F90056CE0642D600790056FEF12A0ED
:10062000A2900694E0B5010790035CE06A6017ECC5
:1006300064016010EC6408600BEC64096006ECC3B4
:1006400094204002D201900694E9F090035CEAF015
:10065000EC12756C06AC0006BB0106CB0206D40397
:1006600006E404074905075D0607760707F708084B
:10067000090908CA0A08DA0B08EA0C09920D0A08E7
:100680000E0A180F0A2E100A44110A5A120A701381
:100690000A861409A82009B42109C02209CC23091B
:1006A000D82409E82609F82D00000B1F20010302B9
:1006B0000B1FC201D202C242020B1F200103020B18
:1006C0001FC201D20212A237020B1F30010312A275
:1006D000050208D030010312A205900AC7E0901865
:1006E000B4020B15300105129AAB805390058BE0D4
:1006F00020E74C900AC6E090B4FE93FE5407900B9E
:100700007EF0EE131313541FA3F0E0FF2497F5823D
:10071000E43401F583C083C082E0FE900B7EE0FDEF
:100720007401A805088002C333D8FCFD4ED082D0E6
:1007300083F074022FF582E43400F583E04DF090ED
:100740000AC7E09018AF020B15300107C201D202B0
:1007500012A1EB900AC7E09018CD020B1530010CE6
:10076000C201D202C24212A0AC129779900AC7E02D
:100770009018BE020B15300103129AAB90058BE066
:1007800020E76A900AC6E090B4FE93FE5407900BEF
:100790007EF0EE131313541FA3F0E0FF248CF582B8
:1007A000E43405F583C083C082E0FE900B7EE0FD5B
:1007B0007401A805088002C333D8FCFD4ED082D056
:1007C00083F074362FF582E43403F583E04DF09026
:1007D0000B7FE0FF2497F582E43401F583E04DF0D0
:1007E00074022FF582E43400F583E04DF0900AC7DF
:1007F000E09018CD020B15200103020B1FC201D29D
:1008000002C24212992B020B1F300107C201D20211
:1008100012671B900AC6E0FF90B4FE93F4700302C7
:100820000B1FEF93FE5407900B7EF0EE131313543F
:100830001FA3F0E0FF900B7EE0FE75F015A424AE40
:10084000F582E43417F583E5822FF582E43583F5EC
:1008500083E493900B80F0EE75F015A4242CF582C0
:10086000E43418F583E5822FF582E43583F583E4DB
:1008700093900B81F0900AC7E09018B493FF900515
:1008800080E4F0A3EFF090058BE0900B8120E71E51
:10089000E0FF900B80E0FDE4FB124EB9900B81E08D
:1008A000FF900B80E0FD7B01129C86020B1FE0FF96
:1008B000900B80E0FDE4FB129C86900B81E0FF90A2
:1008C0000B80E0FD12583B020B1F30010312A11DEB
:1008D000900AC7E09018D7020B1530010312A20549
:1008E000900AC7E09018C3020B15300109C201D26B
:1008F00002C24212A0AC900AC6E0FF90B4FE93F48C
:100900007003020988EF93FE5407900B7EF0EE13FC
:100910001313541FA3F0E0FF900B7EE0FE75F0155B
:10092000A424AEF582E43417F583E5822FF582E442
:100930003583F583E493900B80F0EE75F015A424D5
:100940002CF582E43418F583E5822FF582E43583B3
:10095000F583E493900B81F090058BE0900B812060
:10096000E71AE0FF900B80E0FD7B01125617900B19
:1009700081E0FF900B80E0FD7B018009E0FF900BA0
:1009800080E0FDE4FB129C86900AC7E09018AA0262
:100990000B15300109C201D202C2421297D2900A4D
:1009A000C7E09018C8020B15200103020B1FC201FB
:1009B000E4FF802E200103020B1FC2017F01802271
:1009C000200103020B1FC2017F02801620010302D7
:1009D0000B1FC2017F03800A200103020B1FC2010B
:1009E0007F04122A05020B1F200103020B1FC20104
:1009F000D20212A123020B1F300107C201D2021240
:100A00007F7A12971B020B1F30010312A11D900A5F
:100A1000C7E09018D2020B15300109C201D202C200
:100A200042129C45900AC7E09018E6020B1530016F
:100A300009C201D202C24212A274900AC7E0901801
:100A4000E1020B15300109C201D202C24212A237E3
:100A5000900AC7E09018E1020B15300109C201D2DB
:100A600002C24212A23F900AC7E09018D7020B15AB
:100A7000300109C201D202C24212A247900AC7E065
:100A80009018D7020B15300109129AAB900AEDE0CD
:100A900004F090058BE020E775900AEDE0C3941E0A
:100AA0004002E4F0900AC6E090B4FE93FE54079032
:100AB0000B7EF0EE131313541FA3F0E0FF248CF50C
:100AC00082E43405F583C083C082E0FE900B7EE0B3
:100AD000FD7401A805088002C333D8FCFD4ED08206
:100AE000D083F074362FF582E43403F583E04DF0C3
:100AF000900B7FE0FF2497F582E43401F583E04D0D
:100B0000F074022FF582E43400F583E04DF0900A92
:100B1000C7E09018CD93FF900580E4F0A3EFF0209C
:100B20000203020F5F90056CE024DA7003020D44AB
:100B300024F97003020E8D242CB414004003020F1C
:100B40005F900B4F75F003A4C58325F0C583730236
:100B50000B8B020BB7020BD5020BF3020C1C020C21
:100B600048020C66020C8F020C92020CB0020CDCE4
:100B7000020CFA020D18020D8B020DB7020DD50200
:100B80000DF4020E15020E34020E61C3900354E000
:100B90009428900353E094005003020F5F90058A5D
:100BA000E004F0E0D3940940037409F090058AE072
:100BB000FF12537E020F58900580E0FEA3E0FFC3B2
:100BC000900354E09F900353E09E5003020F5F1286
:100BD0005EE2020F58900580E0FEA3E0FFC39003A1
:100BE00054E09F900353E09E5003020F5F128290E7
:100BF000020F58900663E0D3940F4005E4F0122EE4
:100C000035900580E0FEA3E0FFC3900354E09F9081
:100C10000353E09E5003020F5F020D3E900663E017
:100C2000D3940A4005E4F0122E35900580E0FEA32F
:100C3000E0FFC3900354E09F900353E09E500302F3
:100C40000F5F120181020F58900580E0FEA3E0FFC4
:100C5000C3900354E09F900353E09E5003020F5F44
:100C6000124915020F58900663E0D3940F4005E433
:100C7000F0122E35900580E0FEA3E0FFC3900354F0
:100C8000E09F900353E09E5003020F5F020D3E026F
:100C90009B7C900580E0FEA3E0FFC3900354E09F9F
:100CA000900353E09E5003020F5F12630E020F5831
:100CB000900663E0D3940F4005E4F0122E359005C2
:100CC00080E0FEA3E0FFC3900354E09F900353E055
:100CD0009E5003020F5F128758020F58900580E064
:100CE000FEA3E0FFC3900354E09F900353E09E50A7
:100CF00003020F5F1238EF020F58900580E0FEA349
:100D0000E0FFC3900354E09F900353E09E50030222
:100D10000F5F122E35020F58900663E0D394014006
:100D200005E4F0122E35900580E0FEA3E0FFC390AD
:100D30000354E09F900353E09E5003020F5F12693B
:100D400017020F58900663E0D3940A4005E4F012AE
:100D50002E35C3900354E0940A900353E09400505E
:100D600003020F5F9001947407F0900AC47404F0BA
:100D7000900B72E0700F12A0AC900AD1E09001933A
:100D8000F0D231C243128758020F58900663E0D365
:100D9000940F4005E4F0122E35900580E0FEA3E0AC
:100DA000FFC3900354E09F900353E09E5003020F53
:100DB0005F123C56020F58900580E0FEA3E0FFC38F
:100DC000900354E09F900353E09E5003020F5F1284
:100DD0007108020F58900580E0FEA3E0FFC3900366
:100DE00054E09F900353E09E5003020F5FE4F0A392
:100DF000F0027E60900580E0FEA3E0FFC390035404
:100E0000E09F900353E09E5003020F5FE4F0A3F0D5
:100E10007F0902537E900580E0FEA3E0FFC39003AC
:100E200054E09F900353E09E5003020F5FE4F0A351
:100E3000F0028489900663E0D3940F4005E4F01239
:100E40002E35900580E0FEA3E0FFC3900354E09FA1
:100E5000900353E09E5003020F5FE4F0A3F0026E94
:100E6000DF900663E0D3940F4005E4F0122E359036
:100E70000580E0FEA3E0FFC3900354E09F9003537E
:100E8000E09E5003020F5F12838D020F58C3900340
:100E900054E094FA900353E094005003020F5F90E3
:100EA0000AE8E0FF9408503BE0FE75F003A4240D2F
:100EB000F582E43411F583E493900195F0EE75F03A
:100EC00003A4240EF582E43411F583E4939000002A
:100ED000F0EF75F003A4240FF582E43411F583E4F8
:100EE000938047900AE8E064097036900195F0908D
:100EF0000000F0900AD2F0900AE9E0FF700704F0D9
:100F00009001958017EFB4010B900AE97402F090FC
:100F100000008008E4900AE9F0900AD274FFF080A3
:100F20000DE4900195F0900000F0900AD2F0305559
:100F30000DE49001B4F0A3F0A3F0C255801AD2558D
:100F4000900195E09001B4F0900000E09001B5F0C0
:100F5000900AD2E09001B6F0E4900353F0A3F0229F
:100F600090FF80748AF0A37408F0A3F0A3F0A3F0BC
:100F7000A3F090FF9C7401F090FF98E4F090FFB80C
:100F8000F090FFA0F090FFE8F090FFD0F090FFB954
:100F9000F090FFA1F090FFE9F090FFD1F090FFBA40
:100FA000F090FFA2F090FFEAF090FFD2F090FFBB2C
:100FB000F090FFA3F090FFEBF090FFD3F090FFBC18
:100FC000F090FFA4F090FFECF090FFD4F090FFBD04
:100FD000F090FFA5F090FFEDF090FFD5F090FF8628
:100FE000748AF0A37408F0A3F0A3F0A3F0A3F09028
:100FF000FF9D7401F090FF99E4F090FFBEF090FF28
:10100000A6F090FFEEF090FFD6F090FFBFF090FFBB
:10101000A7F090FFEFF090FFD7F090FFC0F090FFA7
:10102000A8F090FFF0F090FFD8F090FFC1F090FF93
:10103000A9F090FFF1F090FFD9F090FFC2F090FF7F
:10104000AAF090FFF2F090FFDAF090FFC3F090FF6B
:10105000ABF090FFF3F090FFDBF090FF8C7482F028
:10106000A3E4F0A37408F0A3F0A3F0A3F090FF9E14
:101070007401F090FF9AE4F090FFC4F090FFACF0A0
:1010800090FFF4F090FFDCF090FFC5F090FFADF022
:1010900090FFF5F090FFDDF090FFC6F090FFAEF00E
:1010A00090FFF6F090FFDEF090FFC7F090FFAFF0FA
:1010B00090FFF7F090FFDFF090FFC8F090FFB0F0E6
:1010C00090FFF8F090FFE0F090FFC9F090FFB1F0D2
:1010D00090FFF9F090FFE1F075DA8A75DB0875DCB6
:1010E0000875DE01F5DDF5D5F5D2F5C3F5CEF5D6FB
:1010F000F5D3F5C4F5C1F5D7F5D4F5C5F5C2220091
:10110000000000000000000000050C141EFF00009D
:10111000FF8000FFFF0000FF0000FFFF0000FFFF57
:1011200000FFFFFFFF3AFFFFFFFFFFFFFFFFFFFF93
:10113000FFFF39413242333BFFFFFFFFFFFFFF401C
:1011400048312A2B343C44434A49FFFF38292223A3
:101150002C2D5051524B4CFFFF30211A1B24585953
:101160005A535445FFFF281912131C6061625B5CDF
:101170004D63FF20110A0B141568FF696A6B6455F3
:10118000180902030C0D807071736C65FF1000016B
:10119000050474756D72FFFFFFFF0075FFFFFFFF11
:1011A00001106D74FFFF180902656C7320110A5558
:1011B000646B2819124D5C5B30211A455453382951
:1011C000224B4C6340312A4443FF39323C33FFFF0A
:1011D00041424443FFFF333A443CFFFF3A423C3331
:1011E000FFFF4243333AFFFF4344FFFFFFFF3C4210
:1011F000FFFFFFFF3343FFFFFFFF3A44FFFFFFFF07
:10120000423CFFFFFFFF3BFFFFFFFFFF3BFFFFFFF6
:10121000FFFF16181B1E2124272A2D3135393D4189
:1012200045494D5155595E63686D72777C81868C56
:1012300092989EA4AAB0B6BCC2C8CED5DCE3EAF1AF
:10124000F8FFFFF8F1EAE3DCD5CEC8C2BCB6B0AA1D
:10125000A49E98928C86817C77726D68635E5955E6
:10126000514D4945413D3935312D2A2724211E1B39
:101270001816000102030405060708090A0C0E10DF
:10128000121416181B1E2124272A2D3135393D41F1
:1012900045494D5155595E63686D72777C81868CE6
:1012A00092989EA4AAB0B6BCC2C8CED5DCE3EAF13F
:1012B000F8FFFFF8F1EAE3DCD5CEC8C2BCB6B0AAAD
:1012C000A49E98928C86817C77726D68635E595576
:1012D000514D4945413D3935312D2A2724211E1BC9
:1012E00018161412100E0C0A09080706050403024A
:1012F0000100010101BFBFBF060606BEBEBE0B0B4B
:101300000BBCBCBC101010B9B9B9151515B4B4B4E8
:101310001A1A1AAFAFAF1F1F1FAAAAAA242424A506
:10132000A5A5292929A0A0A02E2E2E9B9B9B333357
:10133000339696963838389191913D3D3D8C8C8C02
:101340004242428787874747478282824C4C4C7D86
:101350007D7D5151517878785656567474745A5A26
:101360005A7070705F5F5F6C6C6C63636367676714
:101370000000005454540707074D4D4D0E0E0E4605
:1013800046461515153F3F3F1C1C1C383838232393
:10139000233131312A2A2A2A2A2A3131312323239F
:1013A0003838381C1C1C3F3F3F1515154646460E65
:1013B0000E0E4D4D4D0707075454545F5F5F5B5B46
:1013C0005B5B5B5B5F5F5F5454540000004D4D4DB1
:1013D0000707074646460E0E0E3F3F3F15151538C8
:1013E00038381C1C1C3131312323232A2A2AFF01BF
:1013F00000FF0300FF0500FF0700FF0A00FF0E00CB
:10140000FF1200FF1600FF1A00FF2000FF2600FF5A
:101410002C00FF3200FF3900FF4100FF4900FF515F
:1014200000FF5900FF6300FF6D00FF7700FF8100A0
:10143000FF8C00FF9800FFA400FFB000FFBC00FF7E
:10144000C800FFD500FFE300FFF100FFFF00F8FF39
:1014500000EAFF00DCFF00CEFF00C2FF00B6FF0085
:10146000AAFF009EFF0092FF0086FF007CFF007233
:10147000FF0068FF005EFF0055FF004DFF0045FFC5
:10148000003DFF0035FF002FFF0029FF0023FF0074
:101490001DFF0018FF0014FF0010FF000CFF0008E4
:1014A000FF0006FF0004FF0002FF0000FF0000FF36
:1014B0000100FF0300FF0500FF0700FF0A00FF0E09
:1014C00000FF1200FF1600FF1A00FF2000FF260099
:1014D000FF2C00FF3200FF3900FF4100FF4900FFF1
:1014E0005100FF5900FF6300FF6D00FF7700FF818F
:1014F00000FF8C00FF9800FFA400FFB000FFBC00BD
:10150000FFC800FFD500FFE300FFF100FFFF00F878
:10151000FF00EAFF00DCFF00CEFF00C2FF00B6FFC5
:1015200000AAFF009EFF0092FF0086FF007CFF00E4
:1015300072FF0068FF005EFF0055FF004DFF004591
:10154000FF003DFF0035FF002FFF0029FF0023FFB4
:10155000001DFF0018FF0014FF0010FF000CFF002B
:1015600008FF0006FF0004FF0002FF0000FF01006B
:10157000FF0300FF0500FF0700FF0A00FF0E00FF4A
:101580001200FF1600FF1A00FF2000FF2600FF2CAC
:1015900000FF3200FF3900FF4100FF4900FF51000A
:1015A000FF5900FF6300FF6D00FF7700FF8100FF20
:1015B0008C00FF9800FFA400FFB000FFBC00FFC834
:1015C00000FFD500FFE300FFF100FFFF00FFFF0079
:1015D000F8FF00EAFF00DCFF00CEFF00C2FF00B60C
:1015E000FF00AAFF009EFF0092FF0086FF007CFF25
:1015F0000072FF0068FF005EFF0055FF004DFF0016
:1016000045FF003DFF0035FF002FFF0029FF0023AD
:10161000FF001DFF0018FF0014FF0010FF000CFF6B
:101620000008FF0006FF0004FF0002FF00000005A5
:10163000FF0011FF001DFF0030FF0041FF0055FFBC
:101640000069FF007FFF0089FF0094FF00A1FF00F9
:10165000ABFF00B6FF00C0FF00CAFF00D3FF00DCF5
:10166000FF00E5FF00EDFF00F3FF00FAFF00FFFFC2
:1016700000FFFA00FFF600FFEE00FFE700FFDF00CB
:10168000FFD600FFCD00FFC300FFBA00FFAF00FF91
:10169000A500FF9900FF8F00FF8200FF7200FF5D31
:1016A00000FF4900FF3600FF2500FF1500FF08007E
:1016B000FF000BFF0016FF0024FF0034FF0046FF71
:1016C0000057FF006AFF007EFF0088FF0090FF00C8
:1016D00098FF009FFF00A8FF00B0FF00B7FF00C009
:1016E000FF00C6FF00CEFF00D4FF00DCFF00E1FFDB
:1016F00000E7FF00EDFF00F3FF00F7FF00FBFF0036
:10170000FFFF00FFF900FFF200FFEC00FFE100FF28
:10171000D700FFCE00FFC300FFB700FFAA00FF9F66
:1017200000FF9100FF8400FF6900FF4400FF2200DA
:10173000FF0A00FF0005FF0011FF001EFF0032FF3F
:101740000045FF005BFF0071FF0083FF008EFF007C
:101750009BFF00A5FF00B1FF00BDFF00C7FF00D148
:10176000FF00DBFF00E5FF00ECFF00F3FF00FAFFE6
:1017700000FFFA00FFF300FFED00FFE400FFDC00D4
:10178000FFD100FFC800FFBD00FFB200FFA800FFAF
:101790009E00FF8F00FF8300FF6F00FF5A00FF4590
:1017A00000FF3200FF1F00FF1000FF0500FF0016C2
:1017B00002030405060708090A0B0C0D0E1616167F
:1017C000161616000102030405060708090A0B0C89
:1017D0000D0E16161616161600010203040506074E
:1017E00008090A0B0C0D0E16161616161600010225
:1017F000030405060708090A0B0C0D0E161616162B
:101800001616000C0102030405060708090A0B0D51
:101810000E16161616161600010203040506070812
:10182000090A0B0C0D0E16161616161600000000EF
:1018300000000000000000000000000000000000A8
:101840000001010101010101010101010101010189
:10185000010101010101020202020202020202026E
:101860000202020202020202020202030303030353
:101870000303030303030303030303030303030338
:101880000404040404040404040404040404040418
:1018900004040404040505050505050505050505FD
:1018A00005050505050505050505554637280F6E8F
:1018B0005F5032147364553C1E5546372819281E54
:1018C0000F05011E18120C06BEA08264466E5F5002
:1018D00032145546372D2355463728197D6E5D48FD
:1018E000333C2D1E150C554637281900000000000A
:1018F00000000000000000000000000000000000E8
:1019000000000000000000000000000000000000D7
:1019100000000000000000000000000000000000C7
:1019200000000000000000000000000000000000B7
:1019300000000000000000000000000000000000A7
:101940000000000000000000000000000000000097
:101950000000000000000000000000000000000087
:101960000000000000000000000000000000000077
:101970000000000000000000000000000000000067
:101980000000000000000000000000000000000057
:101990000000000000000000000000000000000047
:1019A0000000000000000000000000000000000037
:1019B0000000000000000000000000000000000027
:1019C0000000000000000000000000000000000017
:1019D0000000000000000000000000000000000007
:1019E00000000000000000FF0000000000000000F8
:1019F00000000000000000000000000000000000E7
:101A000000000000000000000000000000000000D6
:101A1000000000FF000000000000000000000000C7
:101A200000000000000000FFFFFF000000000000B9
:101A300000000000000000000000000000000000A6
:101A40000000000000000000000000FF0000000097
:101A5000000000000000000000000000000000FF87
:101A6000FFFF000000000000000000000000000078
:101A70000000000000000000000000000000000066
:101A80000000000000000000000000000000000056
:101A90000000000000000000000000000000000046
:101AA0000000000000000000000000000000000036
:101AB0000000000000000000000000000000000026
:101AC0000000000000000000000000000000000016
:101AD0000000000000000000000000000000000006
:101AE00000000000000000000000000000000000F6
:101AF00000000000000000000000000000000000E6
:101B000000000000000000000000000000000000D5
:101B100000000000000000000000000000000000C5
:101B200000000000000000000000000000000000B5
:101B300000000000000000000000000000000000A5
:101B40000000000000000000000000000000000095
:101B50000000000000000000000000000000000085
:101B6000000000FFFFFF0000000000000000000078
:101B7000FF000000000000FFFFFFFFFF000000006B
:101B8000000000000000FFFF000000FFFFFFFFFF5C
:101B90000000000000000000000000FFFF00000047
:101BA00000FFFFFF00FF0000000000000000000039
:101BB0000000000000FF0000000000FF0000000027
:101BC00000000000000000000000FF00FF0000FF18
:101BD0000000000000000000000000000000000005
:101BE00000000000000000000000000000000000F5
:101BF00000000000000000000000000000000000E5
:101C000000000000000000000000000000000000D4
:101C100000000000000000000000000000000000C4
:101C200000000000000000000000000000000000B4
:101C300000000000000000000000000000000000A4
:101C40000000000000000000000000000000000094
:101C50000000000000000000000000000000000084
:101C60000000000000000000000000000000000074
:101C70000000000000000000000000000000000064
:101C80000000000000000000000000000000000054
:101C90000000000000000000000000000000000044
:101CA0000000000000000000000000000000000034
:101CB0000000000000000000000000000000000024
:101CC0000000000000000000000000000000000014
:101CD0000000000000000000000000000000000004
:101CE00000000000000000000000000000000000F4
:101CF00000FFFFFFFFFFFFFF0000000000000000EB
:101D0000000000000000FFFFFFFFFF0000000000D8
:101D10000000000000000000000000FFFFFFFFFFC8
:101D2000000000000000000000000000000000FFB4
:101D3000000000FFFF0000000000000000000000A5
:101D400000000000FF000000000000000000000094
:101D50000000000000000000000000000000000083
:101D60000000000000000000000000000000000073
:101D70000000000000000000000000000000000063
:101D80000000000000000000000000000000000053
:101D90000000000000000000000000000000000043
:101DA0000000000000000000000000000000000033
:101DB0000000000000000000000000000000000023
:101DC0000000000000000000000000000000000013
:101DD0000000000000000000000000000000000003
:101DE00000000000000000000000000000000000F3
:101DF00000000000000000000000000000000000E3
:101E000000000000000000000000000000000000D2
:101E100000000000000000000000000000000000C2
:101E200000000000000000000000000000000000B2
:101E300000000000000000000000000000000000A2
:101E40000000000000000000000000000000000092
:101E50000000000000000000000000000000000082
:101E60000000000000000000000000FFFFFFFFFF77
:101E7000FFFF000000000000000000000000000064
:101E8000FFFFFFFF00000000000000000000000056
:101E90000000000000FFFFFFFF0000000000000046
:101EA0000000000000000000000000000000000032
:101EB0000000000000000000000000000000000022
:101EC0000000000000000000000000000000000012
:101ED0000000000000000000000000000000000002
:101EE00000000000000000000000000000000000F2
:101EF00000000000000000000000000000000000E2
:101F000000000000000000000000000000000000D1
:101F100000000000000000000000000000000000C1
:101F200000000000000000000000000000000000B1
:101F300000000000000000000000000000000000A1
:101F40000000000000000000000000000000000091
:101F50000000000000000000000000000000000081
:101F60000000000000000000000000000000000071
:101F70000000000000000000000000000000000061
:101F80000000000000000000000000000000000051
:101F90000000000000000000000000000000000041
:101FA0000000000000000000000000000000000031
:101FB0000000000000000000000000000000000021
:101FC0000000000000000000000000000000000011
:101FD0000000000000000000000000000000000001
:101FE00000000000000000000000000000000000F1
:101FF0000000000000000000000000FF00FF0000E3
:10200000000000000000000000000000000000FFD1
:10201000FFFF0000000000000000000000000000C2
:10202000000000FF000000000000000000000000B1
:10203000000000FF00000000FF00FF0000000000A3
:1020400000000000000000FFFFFF000000C0E0C033
:10205000F0C083C082C0D075D000C000C001C002F3
:10206000C003C004C005C006C007C2CF204403029D
:1020700023CC12A18C5380E353B084C28F75C0006F
:10208000129D7490035FE004F0E0C394124004E4F6
:10209000F0C24490035FE0FF75F00384FEEF75F03B
:1020A0000384AFF075C30075F003EEA424AEF5828F
:1020B000E5F03401F583E5822FF582E43583F5837D
:1020C000E0F5CE75C40075F003EEA424C0F582E5FA
:1020D000F03401F583E5822FF582E43583F583E062
:1020E000F5C175C50075F003EEA424D2F582E5F0C4
:1020F0003401F583E5822FF582E43583F583E0F53D
:10210000C290FFEDE4F075F003EEA424E4F582E55F
:10211000F03401F583E5822FF582E43583F583E021
:1021200090FFD5F090FFECE4F075F003EEA424F6F8
:10213000F582E5F03401F583E5822FF582E43583FD
:10214000F583E090FFD4F090FFEBE4F075F003EE40
:10215000A42408F582E5F03402F583E5822FF582A8
:10216000E43583F583E090FFD3F090FFEAE4F07567
:10217000F003EEA4241AF582E5F03402F583E5823B
:102180002FF582E43583F583E090FFD2F090FFE9EC
:10219000E4F075F003EEA4242CF582E5F03402F5AA
:1021A00083E5822FF582E43583F583E090FFD1F05B
:1021B00090FFE8E4F075F003EEA4243EF582E5F02C
:1021C0003402F583E5822FF582E43583F583E090D0
:1021D000FFD0F090FFF3E4F075F003EEA42450F587
:1021E00082E5F03402F583E5822FF582E43583F54C
:1021F00083E090FFDBF090FFF2E4F075F003EEA4D3
:102200002462F582E5F03402F583E5822FF582E45D
:102210003583F583E090FFDAF090FFF1E4F075F09C
:1022200003EEA42474F582E5F03402F583E5822FF1
:10223000F582E43583F583E090FFD9F090FFF0E478
:10224000F075F003EEA42486F582E5F03402F58300
:10225000E5822FF582E43583F583E090FFD8F09096
:10226000FFEFE4F075F003EEA42498F582E5F03476
:1022700002F583E5822FF582E43583F583E090FF54
:10228000D7F090FFEEE4F075F003EEA424AAF582F7
:10229000E5F03402F583E5822FF582E43583F5839A
:1022A000E090FFD6F090FFF9E4F075F003EEA4247F
:1022B000BCF582E5F03402F583E5822FF582E43542
:1022C00083F583E090FFE1F090FFF8E4F075F00310
:1022D000EEA424CEF582E5F03402F583E5822FF5F5
:1022E00082E43583F583E090FFE0F090FFF7E4F0BF
:1022F00075F003EEA424E0F582E5F03402F583E501
:10230000822FF582E43583F583E090FFDFF090FFC4
:10231000F6E4F075F003EEA424F2F582E5F0340261
:10232000F583E5822FF582E43583F583E090FFDEC7
:10233000F090FFF5E4F075F003EEA42404F582E5D7
:10234000F03403F583E5822FF582E43583F583E0ED
:1023500090FFDDF090FFF4E4F075F003EEA4241696
:10236000F582E5F03403F583E5822FF582E43583C9
:10237000F583E090FFDCF030270302250490035F33
:10238000E0FF9099C893FE7009EF9099DA9342802C
:102390008034EEB4040C90035FE09099DA9342B07D
:1023A000802490035FE0FF9099C893FEB40509EF85
:1023B0009099DA934288800EEEB4060A90035FE0AB
:1023C0009099DA9342C012997A022504D24412A15C
:1023D0009D5380E353B084C28F75C00053EAC3534A
:1023E000E2C353EBC053E3C053ECC053E4C053EE1D
:1023F000F853E6F8129D7443E23C43903C43E33FBC
:1024000043983F43E43F43A03F43E60743880753D5
:1024100080E353B084C28F75C000900B9DE4F090B0
:102420000B9DE0FFC3941340030224ECEF9099EC62
:1024300093FFB4010D900B9DE0909A0193F452909C
:102440008037EFB4020D900B9DE0909A0193F45207
:10245000988026900B9DE0FF9099EC93FEB4030AC0
:10246000EF909A0193F452A0800FEEB4050B900BFD
:102470009DE0909A0193F4528843D90F43EE187F60
:10248000017E00129E13E58825E05430FFE5F854E4
:102490000F4F44C1900B9CF07F027E00129E13E50B
:1024A0008825E05430FFE5F8540F4F44C1FF53D95D
:1024B000F053EEE7900B9CE0FEB5070FA3E0247C01
:1024C000F582E43406F583EEF0D22043E23C4390FB
:1024D0003C43E33F43983F43E43F43A03F43E60789
:1024E000438807900B9DE004F002241F53EAC35376
:1024F000E2C353EBC053E3C053ECC053E4C053EE0C
:10250000F853E6F8900354E004F07006900353E0AB
:1025100004F0900663E004F09005A2E004F090035C
:102520005EE004F090056EE004F030271090067B2A
:10253000E004F0E0D394FA4004E4F0C22790035E94
:10254000E0D394024053E4F0302623900330E0605F
:1025500003E014F0900330E0703F90032FE0A3F00D
:1025600090032AE0C3947F5030E004F0802B900366
:1025700030E06003E014F0900330E0701C90032F13
:10258000E0A3F0A3E07002A3E0600E900332E02429
:10259000FFF0900331E034FFF0900574E004F09018
:1025A0000572E004F09001ADE0600214F0D007D0B5
:1025B00006D005D004D003D002D001D000D0D0D0B6
:1025C00082D083D0F0D0E032900BB5E0703D900B1C
:1025D000B4E07037900BB2E07031A3E06402702B6E
:1025E000900BB6E0FF7024539BF0EF429B900BD210
:1025F0007411F0A37408F0900BC9E0FF900BD2E0C7
:10260000FAA3E0F5828A83EF0226E5900BB2E0FFA1
:10261000640560030226E9A3E0640360030226E97F
:10262000A3E0640160030226E9539BF0900BB6E03F
:10263000429B900BD27411F0A37408F0900BD2E47B
:1026400075F00112751385F082F5837405F0900B17
:10265000D2E475F00112751385F082F5837401F0F0
:102660009052F5E493FE900BD2E475F001127513CD
:1026700085F082F583EEF09052F6E493FE900BD253
:10268000E475F00112751385F082F583EEF0905237
:10269000F7E493FE900BD2E475F00112751385F008
:1026A00082F583EEF09052F8E493FE900BD2E4753D
:1026B000F00112751385F082F583EEF09052F9E483
:1026C00093FE900BD2E475F00112751385F082F53C
:1026D00083EEF09052FAE493FE900BD2E0FAA3E07E
:1026E000F5828A83EEF00229FDEF64066003022A78
:1026F00001900BB3E064036003022A01A3E06401CC
:102700006003022A01539BF0900BB6E0429B900BB2
:10271000D27411F0A37408F0900BD2E475F001129A
:10272000751385F082F5837406F07809E6247DB48C
:10273000070040030229FD90274575F003A4C583D7
:1027400025F0C5837302275A0227D602286702287C
:10275000B902290B02295D0229AE7809E6FF900B28
:10276000D2E475F00112751385F082F583EFF078ED
:102770000AE6FF900BD2E475F00112751385F08222
:10278000F583EFF0780BE6FF900BD2E475F00112C1
:10279000751385F082F583EFF0D250900BD1740160
:1027A000F0780AE6FE08E6FBEBFF900BCDEEF0A317
:1027B000EFF0900BC2E4F0A374FEF0E4FD900BD2B6
:1027C000E475F00112751385F082F583E4F00DEDE8
:1027D000B404EA0229FD7809E6FF900BD2E475F013
:1027E0000112751385F082F583EFF0780AE6FF9009
:1027F0000BD2E475F00112751385F082F583EFF0CA
:10280000780BE6FF900BD2E475F00112751385F09A
:1028100082F583EFF0780AE6FE08E6FDEDFF900B07
:10282000CDEEF0A3EFF0900BC27404F0A3E4F078C7
:1028300009E6FF900BD2E475F00112751385F08262
:10284000F583EFF0900BD17401F0C250E4FD900BD2
:10285000D2E475F00112751385F082F583E4F00D72
:10286000EDB404EA0229FD780AE6FE08E6FDEDFF74
:10287000900BCDEEF0A3EFF0900BC27404F0A3E444
:10288000F07809E6FF900BD2E475F001127513851C
:10289000F082F583EFF0900BD17401F0C250E4FDAB
:1028A000900BD2E475F00112751385F082F583E484
:1028B000F00DEDB406EA0229FD780AE6FE08E6FD11
:1028C000EDFF900BCDEEF0A3EFF0900BC27404F08F
:1028D000A3E4F07809E6FF900BD2E475F0011275DD
:1028E0001385F082F583EFF0900BD17401F0C250A4
:1028F000E4FD900BD2E475F00112751385F082F5BA
:1029000083E4F00DEDB406EA0229FD780AE6FE083C
:10291000E6FDEDFF900BCDEEF0A3EFF0900BC2744F
:1029200004F0A3E4F07809E6FF900BD2E475F0011F
:1029300012751385F082F583EFF0900BD17401F0DE
:10294000C250E4FD900BD2E475F00112751385F0CE
:1029500082F583E4F00DEDB406EA0229FD780AE67B
:10296000FE08E6FDEDFF900BCDEEF0A3EFF0900B2F
:10297000C27404F0A3E4F07809E6FF900BD2E4758A
:10298000F00112751385F082F583EFF0900BD1748E
:1029900001F0C250E4FD900BD2E475F00112751302
:1029A00085F082F583E4F00DEDB406EA804F780AF5
:1029B000E6FE08E6FDEDFF900BCDEEF0A3EFF09004
:1029C0000BC27404F0A3E4F07809E6FF900BD2E4A4
:1029D00075F00112751385F082F583EFF0900BD13D
:1029E0007401F0C250E4FD900BD2E475F001127551
:1029F0001385F082F583E4F00DEDB406EA43970405
:102A00002212A1BE22900B86EFF0C20512A0ACE408
:102A1000900B87F0E4900B88F0900B88E0FFC39454
:102A2000154003022E25900B86E0FE7069900B88FE
:102A3000E0FD900B87E0FC75F015A42400F582E51D
:102A4000F034BCF583E5822DF582E43583F583E42B
:102A500093FB900B8BE4F0A3EBF075F015ECA42442
:102A60007EF582E5F034BCF583E5822DF582E43510
:102A700083F583E493FD900B8DE4F0A3EDF0900BD0
:102A800087E075F015A424FCF582E5F034BCF583ED
:102A9000E5822F022B73EE64017069900B88E0FFD2
:102AA000900B87E0FE75F015A4247AF582E5F034EA
:102AB000BDF583E5822FF582E43583F583E493FD4C
:102AC000900B8BE4F0A3EDF075F015EEA424F8F56F
:102AD00082E5F034BDF583E5822FF582E43583F598
:102AE00083E493FF900B8DE4F0A3EFF0900B88E06C
:102AF000FF900B87E075F015A42476F582E5F0349D
:102B0000BE022C66900B86E0FF6402707B900B88FF
:102B1000E0FE900B87E0FD75F015A424F4F582E546
:102B2000F034BEF583E5822EF582E43583F583E447
:102B300093FB900B8BE4F0A3EBF075F015EDA42460
:102B400072F582E5F034BFF583E5822EF582E43537
:102B500083F583E493FD900B8DE4F0A3EDF0900BEF
:102B600087E075F015A424F0F582E5F034BFF58315
:102B7000E5822EF582E43583F583E493FD900B8F97
:102B8000E4F0A3EDF0022C7DEF64037068900B88F5
:102B9000E0FF900B87E0FE75F015A4246EF582E54A
:102BA000F034C0F583E5822FF582E43583F583E4C4
:102BB00093FD900B8BE4F0A3EDF075F015EEA424DB
:102BC000ECF582E5F034C0F583E5822FF582E4353B
:102BD00083F583E493FF900B8DE4F0A3EFF0900B6B
:102BE00088E0FF900B87E075F015A4246AF582E574
:102BF000F034C18071900B86E064046003022C7D88
:102C0000900B88E0FF900B87E0FE75F015A424E898
:102C1000F582E5F034C1F583E5822FF582E4358352
:102C2000F583E493FD900B8BE4F0A3EDF075F015C4
:102C3000EEA42466F582E5F034C2F583E5822FF533
:102C400082E43583F583E493FF900B8DE4F0A3EFEA
:102C5000F0900B88E0FF900B87E075F015A424E45A
:102C6000F582E5F034C2F583E5822FF582E4358301
:102C7000F583E493FF900B8FE4F0A3EFF0900AC488
:102C8000E090110893FB900B8FE0FCA3E0FDAF03F5
:102C90007E001274967C007D1E1274A8900B8FEE3D
:102CA000F0A3EFF0900B8DE0FCA3E0FDAF037E00FE
:102CB0001274967C007D1E1274A8900B8DEEF0A30A
:102CC000EFF0900AC4E090110893FF7E00900B8B08
:102CD000E0FCA3E0FD1274967C007D1E1274A890A7
:102CE0000B8BEEF0A3EFF0900B88E0FF900B87E0EA
:102CF000FE75F015A424AEF582E43417F583E58261
:102D00002FF582E43583F583E493FCC394154003E7
:102D1000022E1CEE75F015A4242CF582E43418F56F
:102D200083E5822FF582E43583F583E493FF900BEE
:102D300091F0AD04129652EF7071900B8BA3E0FFEF
:102D400075F012ECA424AEF582E5F03401F583C0F1
:102D500083C082900B91E0FED082D08375F0031285
:102D60007560EFF0900B8DA3E0FF75F012ECA424DA
:102D7000AFF582E5F03401F58375F003EE1275606E
:102D8000EFF0900B8FA3E0FF75F012ECA424B0F5E8
:102D900082E5F03401F583C083C082900B91E0D0CE
:102DA00082D08375F003127560EFF0900B8BA3E077
:102DB000FF75F012ECA424F2F582E5F03403F583FC
:102DC000C083C082900B91E0FED082D08375F00367
:102DD000127560EFF0900B8DA3E0FF75F012ECA47C
:102DE00024F3F582E5F03403F58375F003EE1275F4
:102DF00060EFF0900B8FA3E0FF75F012ECA424F4C9
:102E0000F582E5F03403F583C083C082900B91E036
:102E1000D082D08375F003127560EFF0900B88E0DC
:102E200004F0022A19900B87E004F0E0C3940650E6
:102E300003022A1422900B897401F0305608C256FE
:102E4000A37406F08008D256900B8A7403F0E490C5
:102E50000B87F0305608900B887403F08005E490DF
:102E60000B88F0900B8AE0FF900B88E0FEC39F4038
:102E7000030230CFA3E0FFA806088002C333D8FCCA
:102E8000FF900B87E024ABF582E4340AF583E05F22
:102E900060030230C6900B87E0FF75F012A424B0E7
:102EA000F582E5F03401F583C083C082900B88E0A1
:102EB000FED082D08375F003127560E0900AEEF0C8
:102EC00075F012EFA424AFF582E5F03401F58375B7
:102ED000F003EE127560E0900AECF0900B87E0FFD3
:102EE00075F012A424AEF582E5F03401F583C083B9
:102EF000C082900B88E0FED082D08375F0031275FB
:102F000060E0900AEBF075F012EFA42419F582E569
:102F1000F03400F58375F003EE127560E0FD900A61
:102F2000EEE08DF0A4AEF07805CEC313CE13D8F941
:102F3000900AEEF0900AECE08DF0A4AEF07805CEA9
:102F4000C313CE13D8F9900AECF0900B87E075F01C
:102F500012A42419F582E5F03400F583C083C08201
:102F6000900B88E0FDD082D08375F003127560E08D
:102F7000FF900AEBE08FF0A4AEF07805CEC313CE3D
:102F800013D8F9900AEBF0AF05900B87E0FD12968D
:102F900052EF7075900AEEE0FF900B87E0FE75F03F
:102FA00012A424B0F582E5F03401F583C083C08219
:102FB000900B88E0FDD082D08375F003127560EF2E
:102FC000F0900AECE0FF75F012EEA424AFF582E574
:102FD000F03401F58375F003ED127560EFF0900A9F
:102FE000EBE0FF900B87E075F012A424AEF582E5CC
:102FF000F03401F583C083C082900B88E0D082D08A
:103000008375F003127560EFF090056CE0640D704D
:1030100070900B87E0FF75F012A42419F582E5F09B
:103020003400F583C083C082900B88E0FED082D04C
:103030008375F003127560E0D39401401C75F012A3
:10304000EFA42419F582E5F03400F58375F003EE62
:10305000127560E024FEF0806D900B87E075F01231
:10306000A42419F582E5F03400F583C083C0829072
:103070000B88E0D082D08375F003127560E4F08095
:1030800045900B87E0FF75F012A42419F582E5F056
:103090003400F583C083C082900B88E0FED082D0DC
:1030A0008375F003127560E0D39400401975F01237
:1030B000EFA42419F582E5F03400F58375F003EEF2
:1030C000127560E014F0900B88E004F0022E63901B
:1030D0000B87E004F0E0C394155003022E5322D373
:1030E000900BBBE094C8900BBAE094004003D2521E
:1030F00022900BBBE004F07006900BBAE004F022C3
:103100000000000000000000E4900B7DF020220988
:10311000302C06302A03023420900AC3E024E070E9
:10312000030234F52420B4130040030234FE90312E
:1031300035F828287302316E023177023196023158
:103140009C0231A50231B40231C80231D10231DA18
:103150000231EE02320202321902322D0232FE0236
:1031600033CC0233CF0233DE02340202342C30354A
:10317000030234FE026B053035030234FE20450E97
:103180007B017A0A79C97D0112808D0234FB900A95
:10319000C07401F0800C125CBF023119303503029B
:1031A00034FE029EC2302D030234FE303503023459
:1031B000FE029EEB302D030234FE3035030234FE56
:1031C0007B017A037963804C3035030234FE029828
:1031D0002B3035030234FE028C9B302D030234FE6B
:1031E0003035030234FE7B017A0379628026302D6C
:1031F000030234FE3035030234FE7B017A03796129
:103200008012302D030234FE3035030234FE7B0180
:103210007A0379607D0302808D302D030234FE3005
:1032200035030234FE12866FC242C20022302D03E3
:103230000234FE3035030234FEC200900364E09095
:103240000193600AE02491F582E43403800FE025C5
:10325000E0FFE433FE74752FF58274033EF583E0DE
:10326000540F900AC4F0900193E090899693FF90D8
:103270000B7EF0900AC4E0D39F4008900B7EE09054
:103280000AC4F0D2427A0A79C4128086900B7EE09A
:10329000FF900AC4E0D39F4002EFF0900AC4E0FF21
:1032A0006009900B7EE0FEEFB50608D2169003523F
:1032B0007406F0900364E09001936026E02491F599
:1032C00082E43403F583E054F0FB900AC4E0FFEBA2
:1032D0004FFF900193E02491F582E43403F583EFEE
:1032E000F022E025E0FFE433FE74752FF5827403CD
:1032F0003EF583E054F0FB900AC4E00233AF302D7A
:10330000030234FE3035030234FE900193E0FB6487
:103310000170030234FE900364E060030234FEC2D5
:1033200000EB25E0FFE433FE74752FF58274033E55
:10333000F583E05470FFE4FCFDFE780412753C90C8
:103340000AC7EFF0EB90896493FD900AC7E0D39D24
:103350004002EDF07B017A0A79C712808D900193CB
:10336000E090896493FF900AC7E0D39F4002EFF09A
:10337000900AC7E0FF600D900193E090896493FE8E
:10338000EFB50608D2169003527406F0900193E050
:1033900025E0FFE433FE74752FF58274033EF58358
:1033A000E0548FFFE4AB07900AC7E075F010A4FF6C
:1033B000EB4FFFAD07900193E025E0FFE433FE748F
:1033C000752FF58274033EF583EDF022026CF23026
:1033D0002D030234FE3035030234FE02A009302DE5
:1033E000030234FE3026030234FE900AC0E0FF9050
:1033F000032BE0B50708302A052022028022C212E2
:103400008027302D030234FE3026030234FE900A5A
:10341000C0E0FF90032BE0B5070F302A0C202209F3
:10342000C22AC22CD22BD21F22029400900364E045
:10343000D39400402E90056CE0642D702620220964
:10344000D24B90063BF0A3F022204B030234FEC285
:103450004B900AE8E004F0E0D3940850030234FEF5
:10346000E4F022302D030234FE3035030234FE3006
:1034700022030234FE900193E0FF640370030234E0
:10348000FEEF640F6078EF64106073EF6411606E9C
:10349000E0FD25E0FFE433FE74742FF58274033EF3
:1034A000F583E0900194F0ED90890E93FF900B7EF0
:1034B000F0900194E0D39F4008900B7EE09001943F
:1034C000F0C2427A017994128086900B7EE0FF90E0
:1034D0000194E0D39F4002EFF0900194E0FD900151
:1034E00093E025E0FFE433FE74742FF58274033E0D
:1034F000F583EDF022204306129C03129FEB22FF7E
:103500000000FFFF0000FF0000FFFF0000FFFF00C2
:10351000FFFFFFFFFF0000FFFF0000FF0000FFFFB5
:103520000000FFFF00FFFFFFFFFF0000FFFF0000A4
:10353000FF0000FFFF0000FFFF00FFFFFFFFFF0095
:1035400000FFFF0000FF0000FFFF0000FFFF00FF83
:10355000FFFFFFFF0000FFFF0000FF0000FFFF0074
:1035600000FFFF00FFFFFFFFFF0000FFFF0000FF65
:103570000000FFFF0000FFFF00FFFFFFFFFF000054
:10358000FFFF0000FF0000FFFF0000FFFF00FFFF44
:10359000FFFFFF0000FFFF0000FF0000FFFF000033
:1035A000FFFF00FFFFFFFFFF0000FFFF0000FF0025
:1035B00000FFFF0000FFFF00FFFFFFFFFF0000FF15
:1035C000FF0000FF0000FFFF0000FFFF00FFFFFF04
:1035D000FFFF0000FFFF0000FF0000FFFF0000FFF3
:1035E000FF00FFFFFFFFFF0000FFFF0000FF0000E4
:1035F000FFFF0000FFFF00FFFFFFFFFF0000FFFFD6
:103600000000FF0000FFFF0000FFFF00FFFFFFFFC3
:10361000FF0000FFFF0000FF0000FFFF0000FFFFB2
:1036200000FFFFFFFFFF0000FFFF0000FF0000FFA3
:10363000FF0000FFFF00FFFFFFFFFF0000FFFF0094
:1036400000FF0000FFFF0000FFFF00FFFFFFFFFF84
:103650000000FFFF0000FF0000FFFF0000FFFF0071
:10366000FFFFFFFFFF0000FFFF0000FF0000FFFF64
:103670000000FFFF00FFFFFFFFFF0000FFFF000053
:10368000FF0000FFFF0000FFFF00FFFFFFFFFF0044
:1036900000FFFF0000FF0000FFFF0000FFFF00FF32
:1036A000FFFFFFFF0000FFFF0000FF0000FFFF0023
:1036B00000FFFF00FFFFFFFFFF0000FFFF0000FF14
:1036C0000000FFFF0000FFFF00FFFFFFFFFF000003
:1036D000FFFF0000FF0000FFFF0000FFFF00FFFFF3
:1036E000FFFFFF0000FFFF0000FF0000FFFF0000E2
:1036F000FFFF00FFFFFFFFFF0000FFFF0000FF00D4
:1037000000FFFF0000FFFF00FFFFFFFFFF0000FFC3
:10371000FF0000FF0000FFFF0000FFFF00FFFFFFB2
:10372000FFFF0000FFFF0000FF0000FFFF0000FFA1
:10373000FF00FFFFFFFFFF0000FFFF0000FF000092
:10374000FFFF0000FFFF00FFFFFFFFFF0000FFFF84
:103750000000FF0000FFFF0000FFFF00FFFFFFFF72
:10376000FF0000FFFF0000FF0000FFFF0000FFFF61
:1037700000FFFFFFFFFF0000FFFF0000FF0000FF52
:10378000FF0000FFFF00FFFFFFFFFF0000FFFF0043
:1037900000FF0000FFFF0000FFFF00FFFFFFFFFF33
:1037A0000000FFFF0000FF0000FFFF0000FFFF0020
:1037B000FFFFFFFFFF0000FFFF0000FF0000FFFF13
:1037C0000000FFFF00FFFFFFFFFF0000FFFF000002
:1037D000FF0000FFFF0000FFFF00FFFFFFFFFF00F3
:1037E00000FFFF0000FF0000FFFF0000FFFF00FFE1
:1037F000FFFFFFFF0000FFFF0000FF0000FFFF00D2
:1038000000FFFF00FFFFFFFFFF0000FFFF0000FFC2
:103810000000FFFF0000FFFF00FFFFFFFFFF0000B1
:10382000FFFF0000FF0000FFFF0000FFFF00FFFFA1
:10383000FFFFFF0000FFFF0000FF0000FFFF000090
:10384000FFFF00FFFFFFFFFF0000FFFF0000FF0082
:1038500000FFFF0000FFFF00FFFFFFFFFF0000FF72
:10386000FF0000FF0000FFFF0000FFFF00FFFFFF61
:10387000FFFF0000FFFF0000FF0000FFFF0000FF50
:10388000FF00FFFFFFFFFF0000FFFF0000FF000041
:10389000FFFF0000FFFF00FFFFFFFFFF0000FFFF33
:1038A0000000FF0000FFFF0000FFFF00FFFFFFFF21
:1038B000FF0000FFFF0000FF0000FFFF0000FFFF10
:1038C00000FFFFFFFFFF0000FFFF0000FF0000FF01
:1038D000FF0000FFFF00FFFFFFFFFF0000FFFF00F2
:1038E00000FF0000FFFF0000FFFF00FFFFFFFFE4FD
:1038F000900B8CF0900194E064076003023A587FCB
:10390000C0129AF1900B8CEFF0E4900B86F0900BC4
:103910008CE0FF75F003A424EEF582E5F03413F596
:1039200083E493900195F075F003EFA424EFF58202
:10393000E5F03413F583E493900000F0900B8C12C3
:103940009218900B8CE02405F0E0C394C04004E092
:103950002440F0E4900B87F0900B87E0FFC39406BF
:103960004003023A48900B86E075F006A4FEEF2E65
:10397000900B88F0E090B57C93F47003023A3F908E
:103980000B86E0FFA3E0FE75F015A424AEF582E4FB
:103990003417F583E5822FF582E43583F583E493CC
:1039A000FD900B8AF0EE75F015A4242CF582E4341A
:1039B00018F583E5822FF582E43583F583E493FFE0
:1039C000900B8BF0129652EF7075900195E0FF907E
:1039D0000B8AE0FE75F012A424AEF582E5F0340106
:1039E000F583C083C082900B8BE0FDD082D08375BD
:1039F000F003127560EFF0900000E0FF75F012EE3A
:103A0000A424AFF582E5F03401F58375F003ED12DF
:103A10007560EFF0900AD2E0FF900B8AE075F0122B
:103A2000A424B0F582E5F03401F583C083C0829010
:103A30000B8BE0D082D08375F003127560EFF090AD
:103A40000B87E004F0023958900B86E004F0E0C3E5
:103A50009415500302390E227F60129AF1900B8C5C
:103A6000EFF0E4900B86F0900AC9E0FF75F0F8A43F
:103A70002400F582E5F034B8F583EF2583F583C0A3
:103A800083C08290056CE0FFD082D08375F0151260
:103A90007560C083C082900194E0FED082D08375AF
:103AA000F003127560E493900195F0900AC9E0FD6F
:103AB00075F0F8A42401F582E5F034B8F583ED251E
:103AC00083F58375F015EF12756075F003EE1275CE
:103AD00060E493900000F0900AC9E0FF75F0F8A44C
:103AE0002402F582E5F034B8F583EF2583F583C031
:103AF00083C08290056CE0D082D08375F01512757A
:103B000060C083C082900194E0D082D08375F003BE
:103B1000127560E493900AD2F0900B8CE090121230
:103B200093FF7E007DFF7C0012923C12922D900B41
:103B30008CE0240AF0E0C394604004E024A0F0E4A8
:103B4000900B87F0900B87E0FFC394064003023C84
:103B500046900B86E075F006A4FEEF2E900B88F0E1
:103B6000E0FF90B57C93F47003023C3DEF93FE546C
:103B700007900B8BF0EE131313541F900B8AF0E099
:103B8000FFA3E0FE75F015A424AEF582E43417F52A
:103B900083E5822FF582E43583F583E493900B8AE5
:103BA000F0E0FDEE75F015A4242CF582E43418F550
:103BB00083E5822DF582E43583F583E493FF900B52
:103BC0008BF0129652EF7075900195E0FF900B8A82
:103BD000E0FE75F012A424AEF582E5F03401F58321
:103BE000C083C082900B8BE0FDD082D08375F00340
:103BF000127560EFF0900000E0FF75F012EEA42463
:103C0000AFF582E5F03401F58375F003ED127560D0
:103C1000EFF0900AD2E0FF900B8AE075F012A42436
:103C2000B0F582E5F03401F583C083C082900B8B40
:103C3000E0D082D08375F003127560EFF0900B87AF
:103C4000E004F0023B44900B86E004F0E0C39415DE
:103C50005003023A6722900194E064076003023D3A
:103C6000CD7FC0129AF175F003EFA424EEF582E542
:103C7000F03413F583E493900195F075F003EFA40D
:103C800024EFF582E5F03413F583E493900000F01F
:103C900075F003EF12921CE4900B87F0900B87E015
:103CA000FFC394064003023DAC90069EE075F0060B
:103CB000A4FEEF2E900B88F0E090B57C93F4700397
:103CC000023DA390069EE0FF900B87E0FE75F01585
:103CD000A424AEF582E43417F583E5822FF582E45F
:103CE0003583F583E493FD900B8AF0EE75F015A40F
:103CF000242CF582E43418F583E5822FF582E4352F
:103D000083F583E493FF900B8BF0129652EF6003E0
:103D1000023DA3900195E0FF900B8AE0FE75F01242
:103D2000A424AEF582E5F03401F583C083C082900F
:103D30000B8BE0FDD082D08375F003127560EFF03D
:103D4000900000E0FF75F012EEA424AFF582E5F0DC
:103D50003401F58375F003ED127560EFF0900AD22F
:103D6000E0FF900B8AE0FE75F012A424B0F582E526
:103D7000F03401F583C083C082900B8BE0FDD082CC
:103D8000D08375F003127560EFF075F012EEA42485
:103D900019F582E5F03400F58375F003ED127560D6
:103DA0007420F0900B87E004F0023C9C30480C90AB
:103DB000069EE0600314F022C2482290069EE004B2
:103DC000F0E0D3940F5003023FB7023FB2900AC90C
:103DD000E0FF75F0F8A42400F582E5F034B8F5832F
:103DE000EF2583F583C083C08290056CE0FFD0820D
:103DF000D08375F015127560C083C082900194E085
:103E0000FED082D08375F003127560E49390019523
:103E1000F0900AC9E0FD75F0F8A42401F582E5F000
:103E200034B8F583ED2583F58375F015EF127560D1
:103E300075F003EE127560E493900000F0900AC9EB
:103E4000E0FF75F0F8A42402F582E5F034B8F583BC
:103E5000EF2583F583C083C08290056CE0D082D0CB
:103E60008375F015127560C083C082900194E0D014
:103E700082D08375F003127560E493900AD2F01239
:103E8000922DE4900B87F0900B87E0FFC3940640DF
:103E900003023F9790069EE075F006A4FEEF2E9079
:103EA0000B88F0E090B4FE93F47003023F8E90060E
:103EB0009EE0FF900B87E0FE75F015A424AEF5821E
:103EC000E43417F583E5822FF582E43583F583E446
:103ED00093FD900B8AF0EE75F015A4242CF582E486
:103EE0003418F583E5822FF582E43583F583E49376
:103EF000FF900B8BF0129652EF6003023F8E900101
:103F000095E0FF900B8AE0FE75F012A424AEF582D6
:103F1000E5F03401F583C083C082900B8BE0FDD0C7
:103F200082D08375F003127560EFF0900000E0FF1F
:103F300075F012EEA424AFF582E5F03401F5837537
:103F4000F003ED127560EFF0900AD2E0FF900B8A5B
:103F5000E0FE75F012A424B0F582E5F03401F5839B
:103F6000C083C082900B8BE0FDD082D08375F003BC
:103F7000127560EFF075F012EEA42419F582E5F0E9
:103F80003400F58375F003ED1275607420F0900B2A
:103F900087E004F0023E8730480C90069EE0600304
:103FA00014F022C2482290069EE004F0E0D3940F61
:103FB0004005740FF0D24822900BB3E0FD6401700D
:103FC0003F900BCD7452F0A37476F0900BC2E4F0E6
:103FD000A37412F0900BB7E0FE900BB6E0FBEBFF82
:103FE000900BC0EEF0A3EFF0C39412EE94005005D6
:103FF000900BC08003900BC2E0FEA3E0FF0242D30F
:10400000ED6402703F900BCD7452F0A37488F09071
:104010000BC2E4F0A3743BF0900BB7E0FE900BB63C
:10402000E0FDEDFF900BC0EEF0A3EFF0C3943BEE8C
:1040300094005005900BC08003900BC2E0FEA3E0FB
:10404000FF0242D3900BB3E0FD640360030241AF73
:10405000900BB2E0FC703F900BCD7451F0A3743420
:10406000F0900BC2E4F0A37404F0900BB7E0FE9064
:104070000BB6E0FBEBFF900BC0EEF0A3EFF0C394A8
:1040800004EE94005005900BC08003900BC2E0FE3C
:10409000A3E0FF0242D3EC6401703F900BCD74515A
:1040A000F0A37408F0900BC2E4F0A37411F0900B2D
:1040B000B7E0FE900BB6E0FBEBFF900BC0EEF0A379
:1040C000EFF0C39411EE94005005900BC080039064
:1040D0000BC2E0FEA3E0FF0242D3900BB2E0FC640F
:1040E00002703F900BCD7452F0A374D5F0900BC2C8
:1040F000E4F0A37420F0900BB7E0FE900BB6E0FB69
:10410000EBFF900BC0EEF0A3EFF0C39420EE940011
:104110005005900BC08003900BC2E0FEA3E0FF02AD
:1041200042D3EC6403703F900BCD7451F0A374192B
:10413000F0900BC2E4F0A3740AF0900BB7E0FE908D
:104140000BB6E0FBEBFF900BC0EEF0A3EFF0C394D7
:104150000AEE94005005900BC08003900BC2E0FE65
:10416000A3E0FF0242D3900BB2E0F4703F900BCD7E
:104170007451F0A37423F0900BC2E4F0A37411F017
:10418000900BB7E0FE900BB6E0FBEBFF900BC0EEA0
:10419000F0A3EFF0C39411EE94005005900BC08093
:1041A00003900BC2E0FEA3E0FF0242D30242DFED28
:1041B00064226003024244900BB4E0FD703F900B18
:1041C000CD7451F0A37438F0900BC2E4F0A37443A3
:1041D000F0900BB7E0FE900BB6E0FBEBFF900BC04E
:1041E000EEF0A3EFF0C39443EE94005005900BC0A3
:1041F0008003900BC2E0FEA3E0FF0242D3ED640116
:10420000703F900BCD7451F0A3747BF0900BC2E41F
:10421000F0A374FBF0900BB7E0FE900BB6E0FDED61
:10422000FF900BC0EEF0A3EFF0C394FBEE940050B0
:1042300005900BC08003900BC2E0FEA3E0FF02429A
:10424000D30242DF900BB3E0642160030242DFA39C
:10425000E0FD703E900BCD7452F0A374C3F0900B50
:10426000C2E4F0A37409F0900BB7E0FE900BB6E047
:10427000FBEBFF900BC0EEF0A3EFF0C39409EE94BC
:10428000005005900BC08003900BC2E0FEA3E0FF3E
:104290008041ED64017046900BCD7452F0A374CC54
:1042A000F0900BC2E4F0A37409F0900BB7E0FE901D
:1042B0000BB6E0FDEDFF900BC0EEF0A3EFF0C39462
:1042C00009EE94005005900BC08003900BC2E0FEF5
:1042D000A3E0FF900BC2EEF0A3EFF0800580000298
:1042E0000056C250128FB85393FE439704222025E4
:1042F000030244F8C22553A9FE900571E075F080D1
:10430000A4FFAEF0900B7AEEF0A3EFF02400FFEEE6
:1043100034DCFEC394DC4022EE94E0501D900B7818
:1043200074DCF0A3E4F02FFFEE3424900B7CF0A3B8
:10433000EFF0900B8074DCF08076C3EE94E04022C6
:10434000EE94E4501D900B7874E0F0A3E4F02FFF9E
:10435000EE3420900B7CF0A3EFF0900B8074E0F033
:10436000804EC3EE94E44022EE94E8501D900B780A
:1043700074E4F0A3E4F02FFFEE341C900B7CF0A368
:10438000EFF0900B8074E4F08026C3EE94E84020B8
:10439000EE94EC501B900B7874E8F0A3E4F02FFF40
:1043A000EE3418900B7CF0A3EFF0900B8074E8F0E3
:1043B000E4900B7EF0A3F0900B7EE0FEA3E0FF9074
:1043C0000B79E02FFD900B78E03E8D82F583E4932E
:1043D000FD74A22FF58274063EF583EDF0900B7FFD
:1043E000E004F07006900B7EE004F0900B7EE0B4E9
:1043F00004C5A3E0B400C0E4900B7EF0A3F0900BE2
:104400007EE0FEA3E0FFC39480EE9400503C74BABB
:104410002FF58274053EF583E0FF900B7EE0FCA350
:10442000E0FD900B7DE02DFD900B7CE03CFC74A248
:104430002DF58274063CF583EFF0900B7FE004F0DD
:1044400070BC900B7EE004F080B4A2AF9258C2AF73
:10445000900B80E0FF129F837B017A0679A2900B7C
:1044600078E0FCA3E0FD900BA87402F0A3E4F01246
:10447000929A900B80E004FF129F83900B79E024C6
:1044800000F0900B78E03402F07B017A0679A2E02C
:10449000FCA3E0FD900BA87402F0A3E4F012929A42
:1044A000A25892AFE4900B7EF0A3F0900B7EE0FE5A
:1044B000A3E0FF900B79E02FFD900B78E03E8D821A
:1044C000F583E493FD74A22FF58274063EF583E034
:1044D0006D600302444A900B7FE004F07006900B7D
:1044E0007EE004F0900B7EE0B404C0A3E0B400BB17
:1044F000C20512A17A43A901203F0302460BC23F25
:1045000053A9FE900AC9E0600302460B900AD1E06D
:10451000FDB4200B900B7A7401F0A3747A800AED3D
:10452000B4210EE4900B7AF0A3F0900B7874BC8069
:1045300041900AD1E0FDB42211900B7A7401F0A3EE
:10454000747AF0900B7874BE8028EDB4230EE4905A
:104550000B7AF0A3F0900B7874BE8016900AD1E02D
:10456000B4241D900B7A7401F0A3747AF0900B7848
:1045700074C0F0A3E4F0900B78E0C313900B80F0CC
:10458000A2AF9258C2AF900B80E0FF129F83900BB6
:1045900080E004FF129F837B017A0679A2900B785A
:1045A000E0FCA3E0FD900BA87404F0A3E4F01292E9
:1045B0009AA25892AFE4900B7EF0A3F0900B7EE0AD
:1045C000FEA3E0FF900B79E02FFD900B78E03E8D8D
:1045D00082F583E493FD74A22FF58274063EF58381
:1045E000E0B5059C900B7FE004F07006900B7EE038
:1045F00004F0900B7EE0B404C3A3E0B400BE43A972
:1046000001C205900AD1E0900193F022E4900B964C
:10461000F0900B6EE004F0900194E0FF64077003EB
:104620000246C9900AC9E0FE75F0F8A42400F5829C
:10463000E5F034B8F583EE2583F583C083C082901E
:10464000056CE0FED082D08375F01512756075F0B0
:1046500003EF127560E493900195F0900AC9E0FDB4
:1046600075F0F8A42401F582E5F034B8F583ED2562
:1046700083F58375F015EE12756075F003EF127512
:1046800060E493900000F0900AC9E0FF75F0F8A490
:104690002402F582E5F034B8F583EF2583F583C075
:1046A00083C08290056CE0D082D08375F0151275BE
:1046B00060C083C082900194E0D082D08375F00303
:1046C000127560E493900AD2F0E4900B92F0E4F556
:1046D000B112A22FAB07AA06900B6EE02BFFE43AB3
:1046E000FE7C007D841274A8AF05900B95EDF0E080
:1046F000FF9017AE93900B97F0C3941540030249B7
:1047000005E4F5B1EF90182C93900B98F012A22FBE
:10471000AA06AB077C007DC01274A8900B95EDF043
:10472000900B97E0FF75F012A42419F582E5F034A0
:1047300000F583C083C082900B98E0FED082D083C6
:1047400075F003127560E0600302490574AB2FF544
:1047500082E4340AF583E0FD7C00A80674017E0043
:10476000088005C333CE33CED8F9FFEE5CFEEF5D93
:104770004E6003024905900B97E0FD75F012A424EA
:1047800019F582E5F03400F583C083C082900B9860
:10479000E0FFD082D08375F003127560E4F07B01F6
:1047A000129C86900B98E0FF900B97E0FD129652BA
:1047B000EF6003024905900194E06407600302483A
:1047C00045900B93F0900B93E0FFC39403400302DA
:1047D0004905900B95E075F003A424EEF582E5F011
:1047E0003413F583E5822FF582E43583F583E49372
:1047F000FF900AC4E090110893FEEF8EF0A4FFAE84
:10480000F07C007D1E1274A8900B93E0FE900B9735
:10481000E075F012A424F2F582E5F03403F583C0CC
:1048200083C082900B98E0D082D08375F00312751C
:1048300060E5822EF582E43583F583EFF0900B93EB
:10484000E004F08080900AC4E090110893FF90018A
:1048500095E08FF0A4FFAEF07C007D1E1274A8904E
:104860000B97E075F012A424F2F582E5F03403F51D
:1048700083C083C082900B98E0D082D08375F00310
:10488000127560EFF0900AC4E090110893FF900059
:1048900000E08FF0A4FFAEF07C007D1E1274A890A3
:1048A0000B97E075F012A424F3F582E5F03403F5DC
:1048B00083C083C082900B98E0D082D08375F003D0
:1048C000127560EFF0900AC4E090110893FF900A0F
:1048D000D2E08FF0A4FFAEF07C007D1E1274A89091
:1048E0000B97E075F012A424F4F582E5F03403F59B
:1048F00083C083C082900B98E0D082D08375F00390
:10490000127560EFF0900B92E004F0E0C394055054
:10491000030246CE2230560AC256900B887406F027
:104920008008D256900B887403F0E4900B86F03028
:104930005608900B877403F08005E4900B87F09085
:104940000B88E0FF900B87E0FEC39F4003024C0002
:10495000900194E024F950087003024A8A024B390E
:10496000900B86E075F012A42419F582E5F034006E
:10497000F58375F003EE127560E0FD7F6012A073A1
:10498000900B86E0FE75F012A42419F582E5F03450
:1049900000F583C083C082900B87E0FDD082D08376
:1049A00075F003127560EFF075F012EEA42419F59E
:1049B00082E5F03400F58375F003ED127560E09048
:1049C000058AF0900AC9E0FF75F0F8A42400F5828A
:1049D000E5F034B8F583EF2583F583C083C082907A
:1049E000056CE0FFD082D08375F015127560C0832E
:1049F000C082900194E0FED082D08375F0031275DE
:104A000060E493900195F0900AC9E0FD75F0F8A478
:104A10002401F582E5F034B8F583ED2583F583753F
:104A2000F015EF12756075F003EE127560E4939067
:104A30000000F0900AC9E0FF75F0F8A42402F582A6
:104A4000E5F034B8F583EF2583F583C083C0829009
:104A5000056CE0D082D08375F015127560C083C0FC
:104A600082900194E0D082D08375F003127560E4E7
:104A700093900AD2F090058AE090121293FF7E0084
:104A80007DFF7C0012923C024B39900B86E075F062
:104A900012A42419F582E5F03400F583C083C082A6
:104AA000900B87E0D082D08375F003127560E0FD33
:104AB0007FC012A073900B86E0FE75F012A424193B
:104AC000F582E5F03400F583C083C082900B87E067
:104AD000FDD082D08375F003127560EFF075F0128F
:104AE000EEA42419F582E5F03400F58375F003EDAA
:104AF000127560E0FF90058AF0E0FE75F003A424D3
:104B0000EEF582E5F03413F583E493900195F075AA
:104B1000F003EEA424EFF582E5F03413F583E4937B
:104B2000900000F075F003EFA424F0F582E5F03476
:104B300013F583E493900AD2F012922D900B86E045
:104B400075F006A4FFA3E0FE2F90B4FE93F470036B
:104B5000024BF7900B86E0FFEE75F015A424AEF53E
:104B600082E43417F583E5822FF582E43583F583FB
:104B7000E493FD900B8AF0EE75F015A4242CF582D9
:104B8000E43418F583E5822FF582E43583F583E478
:104B900093FEFF129652EF705E900195E0FF900B2E
:104BA0008AE0FD75F012A424AEF582E5F03401F53B
:104BB0008375F003EE127560EFF0900000E0FF7572
:104BC000F012EDA424AFF582E5F03401F58375F021
:104BD00003EE127560EFF0900AD2E0FF900B8AE0CE
:104BE00075F012A424B0F582E5F03401F58375F078
:104BF00003EE127560EFF0900B87E004F002493F7E
:104C0000900B86E004F0E0C39415500302492F2274
:104C1000900B947401F0305608C256A37406F080CD
:104C200008D256900B957403F0E4900B92F0305636
:104C300008900B937403F08005E4900B93F0900BB5
:104C400095E0FF900B93E0C39F4003024EA9900BA9
:104C500092E0FF75F012A424F4F582E5F03403F538
:104C600083C083C082900B93E0FED082D08375F026
:104C700003127560E0900AEEF075F012EFA424F3D1
:104C8000F582E5F03403F58375F003EE127560E00C
:104C9000900AECF0900B92E0FF75F012A424F2F56C
:104CA00082E5F03403F583C083C082900B93E0FE6D
:104CB000D082D08375F003127560E0900AEBF07536
:104CC000F012EFA42419F582E5F03400F58375F0B5
:104CD00003EE127560E0FD900AEEE08DF0A4AEF0F8
:104CE0007805CEC313CE13D8F9900AEEF0900AECF3
:104CF000E08DF0A4AEF07805CEC313CE13D8F990B2
:104D00000AECF0900B92E075F012A42419F582E5FC
:104D1000F03400F583C083C082900B93E0FDD08215
:104D2000D08375F003127560E0FF900AEBE08FF01E
:104D3000A4AEF07805CEC313CE13D8F9900AEBF0E9
:104D4000AF05900B92E0FD129652EF7075900AEE4F
:104D5000E0FF900B92E0FE75F012A424B0F582E51E
:104D6000F03401F583C083C082900B93E0FDD082C4
:104D7000D08375F003127560EFF0900AECE0FF75D8
:104D8000F012EEA424AFF582E5F03401F58375F05E
:104D900003ED127560EFF0900AEBE0FF900B92E0EC
:104DA00075F012A424AEF582E5F03401F583C083DA
:104DB000C082900B93E0D082D08375F003127560AF
:104DC000EFF0900B93E0FFA3E0FEA807088002C37A
:104DD00033D8FCFE900B92E024ABF582E4340AF564
:104DE00083E05E6076900B92E0FD75F012A42419CA
:104DF000F582E5F03400F583C083C082900B93E028
:104E0000FCD082D08375F003127560E004F075F079
:104E100012EDA42419F582E5F03400F58375F00352
:104E2000EC127560E0D394204076900B92E0FD7513
:104E3000F012A42419F582E5F03400F58375F0032F
:104E4000EF1275607420F074AB2DF582E4340AF52E
:104E500083E0FFEEF4FEEF5EF08045900B92E0FF02
:104E600075F012A42419F582E5F03400F583C083AF
:104E7000C082900B93E0FED082D08375F003127550
:104E800060E0D39400401975F012EFA42419F58264
:104E9000E5F03400F58375F003EE127560E014F070
:104EA000900B93E004F0024C3E900B92E004F0E093
:104EB000C394155003024C2E22900B86EFF0A3ED05
:104EC000F0C3941540030250F6EB70030250A1901A
:104ED0000194E024F950056072024F91E4900B8830
:104EE000F0900B88E0FFC394034003024F91900AB7
:104EF000C9E0FE75F0F8A42400F582E5F034B8F5B9
:104F000083EE2583F583C083C08290056CE0D08258
:104F1000D08375F015127560C083C082900194E053
:104F2000D082D08375F003127560E5822FF582E49C
:104F30003583F583E493FE74892FF582E4340BF511
:104F400083EEF0900B88E004F0809612A22FEF75AC
:104F5000F0C084AFF0E4900B88F0900B88E0FE7511
:104F6000F003EFA424EEF582E5F03413F583E58237
:104F70002EF582E43583F583E493FD74892EF58262
:104F8000E4340BF583EDF0900B88E004F0E0B4031B
:104F9000C9900B86E0FFA3E0FD129652EF706DE41E
:104FA000900B88F0900B88E0FFC39403505E900A4A
:104FB000C4E090110893FE74892FF582E4340BF558
:104FC00083E08EF0A4FFAEF07C007D1E1274A890EA
:104FD0000B88E0FE900B87E075F012A424AEF582FA
:104FE000E5F03401F583C083C082900B86E0D08267
:104FF000D08375F003127560E5822EF582E4358367
:10500000F583EFF0900B88E004F08098E4900B8833
:10501000F0900B88E0FFC39403505E900AC4E090C8
:10502000110893FE74892FF582E4340BF583E08E2A
:10503000F0A4FFAEF07C007D1E1274A8900B88E0F7
:10504000FE900B87E075F012A424F2F582E5F034AF
:1050500003F583C083C082900B86E0D082D0837535
:10506000F003127560E5822EF582E43583F583EF57
:10507000F0900B88E004F08098900B87E075F012B8
:10508000A42419F582E5F03400F583C083C0829032
:105090000B86E0D082D08375F0031275607420F027
:1050A00022900B86E0FFA3E0FD129652EF7047E4DA
:1050B000900B88F0900B88E0FFC394035038900B5E
:1050C00087E075F012A424AEF582E5F03401F58393
:1050D000C083C082900B86E0D082D08375F003122B
:1050E0007560E5822FF582E43583F583E4F0900B5B
:1050F00088E004F080BE22302005C220126518220C
:1051000000000000000000001003420059002000D1
:105110005400650063006800000A0330003000306E
:105120000031001003420059002000540065006364
:10513000006800000403090405010906A101050730
:1051400019E029E7150025019508750181029501EF
:105150007508810395067508150026FF00050719D7
:10516000002AFF0081002501950575010508190138
:1051700029059102950175039103C006010009807C
:10518000A101850119812983150025019503750168
:105190008102950175058101C0050C0901A10185F8
:1051A0000219002AFF02150026FF7F950175108164
:1051B00000C00600FF0901A1018503150026FF00BC
:1051C000092F750895038102C005010906A1018513
:1051D00004050719042970150025017501957881CA
:1051E00002C00600FF0901A1018505150026FF0088
:1051F0001901290275089505B102C00600FF0901D1
:10520000A1018506150026FF0019012902750896DF
:105210000704B102C005010902A10185070901A126
:10522000000509150025011901290575019505815C
:105230000295038101050116008026FF7F093009D0
:10524000317510950281061581257F0938750895FD
:10525000018106050C0A380295018106C0C00600CE
:10526000FF0901A1018508150026FF000900750846
:10527000967D01B102C012010002000000088A25DB
:10528000490003010102000109023B00020100A0E4
:10529000FA090400000103010100092111010001C4
:1052A00022430007058103080001090401000103EE
:1052B00000000009211101000122FB000705820303
:1052C00010000109211101000122430009211101EF
:1052D000000122FB002003470061006D0069006EA1
:1052E00000670020004B006500790062006F0061DC
:1052F00000720064000200000000130302041008A2
:10530000FF0056FFA156FF9DABFFA168FF90CFFFA6
:10531000A1CDFF9E6EFF9E42FF003EFF98D7FF9AF1
:1053200016FF8E84FF3FB8FF9E98FF9F3AFF25C867
:10533000FF7B06FFA131FF9F14FF9F5FFF9B37009C
:105340000101020102000303020304000505000934
:1053500006010B0700070880000980060C81060C77
:1053600080080D81000A82000B810A0EA1010F2125
:105370000910210A11A10212210B13A10314900B91
:1053800086EFF0E4900B8CF0C20390056CE06401B2
:10539000600A7FC0129AF1900B8CEFF0E4900B87BB
:1053A000F0900B86E0FFA3E0C39F40030255DC9022
:1053B0000194E0FF64077049900B8CE0FE75F003E8
:1053C000A424EEF582E5F03413F583E4939001957F
:1053D000F075F003EEA424EFF582E5F03413F583C5
:1053E000E493900000F0900B8CE075F003A424F09F
:1053F000F582E5F03413F583E493900AD2F0025479
:10540000A7900AC9E0FE75F0F8A42400F582E5F043
:1054100034B8F583EE2583F583C083C08290056C94
:10542000E0FED082D08375F01512756075F003EF41
:10543000127560E493900195F0900AC9E0FD75F053
:10544000F8A42401F582E5F034B8F583ED2583F561
:105450008375F015EE12756075F003EF127560E458
:1054600093900000F0900AC9E0FF75F0F8A42402C0
:10547000F582E5F034B8F583EF2583F583C083C06A
:105480008290056CE0D082D08375F015127560C0F3
:1054900083C082900194E0D082D08375F0031275AE
:1054A00060E493900AD2F012922D900B8CE0240DC0
:1054B000F0E0C394C04004E02440F0E4FC900B878B
:1054C000E0FF75F00DA42425F582E43411F583E5A1
:1054D000822CF582E43583F583E493F4700302555E
:1054E000CAEF75F00DA42425F582E43411F583E5A7
:1054F000822CF582E43583F583E493FE5407900B08
:105500008BF0EE131313541F900B8AF0E0FFA3E00F
:10551000FE75F015A424AEF582E43417F583E58218
:105520002FF582E43583F583E493900B8AF0E0FD58
:10553000EE75F015A4242CF582E43418F583E58289
:105540002DF582E43583F583E493FF900B8BF01205
:105550009652EF7075900195E0FF900B8AE0FE7512
:10556000F012A424AEF582E5F03401F583C083C0C7
:1055700082900B8BE0FDD082D08375F003127560B2
:10558000EFF0900000E0FF75F012EEA424AFF5827A
:10559000E5F03401F58375F003ED127560EFF090DE
:1055A0000AD2E0FF900B8AE075F012A424B0F582D5
:1055B000E5F03401F583C083C082900B8BE0D0828C
:1055C000D08375F003127560EFF00CEC640D60038E
:1055D0000254BD900B87E004F00253A122E0FEEFDD
:1055E00075F015A424AEF582E43417F583E5822E18
:1055F000F582E43583F583E493FDEF75F015A4247B
:105600002CF582E43418F583E5822EF582E43583A7
:10561000F583E493FF7B01900B8BEFF0A3EDF0C3D8
:105620009415400302583AEB70030257BE90019460
:10563000E024F9500560610256D1E4FE900AC9E009
:10564000FF75F0F8A42400F582E5F034B8F583EF97
:105650002583F583C083C08290056CE0D082D0831F
:1056600075F015127560C083C082900194E0D082FD
:10567000D08375F003127560E5822EF582E43583E0
:10568000F583E493FF748D2EF582E4340BF583EFFC
:10569000F00EEEB403A6803912A22FEF75F0C0848D
:1056A000AFF0E4FE75F003EFA424EEF582E5F034EC
:1056B00013F583E5822EF582E43583F583E493FDCB
:1056C000748D2EF582E4340BF583EDF00EEEB40309
:1056D000D3E4FE748D2EF582E4340BF583E075F08F
:1056E0001E84FF900AC4E090110893FDEF8DF0A492
:1056F000FF900B8CE075F012A424F2F582E5F034F3
:1057000003F583C083C082900B8BE0D082D0837579
:10571000F003127560E5822EF582E43583F583EFA0
:10572000F00EEEB403AD900B8CE0FD75F012A424E6
:1057300019F582E5F03400F583C083C082900B8BAD
:10574000E0FFD082D08375F0031275607420F012F0
:105750009652EF600302583AE4FE900B8CE0FF751E
:10576000F012A424F2F582E5F03403F583C083C07F
:1057700082900B8BE0D082D08375F003127560E5C8
:10578000822EF582E43583F583E0FD75F012EFA4F7
:1057900024AEF582E5F03401F583C083C082900B1E
:1057A0008BE0D082D08375F003127560E5822EF510
:1057B00082E43583F583EDF00EEEB4039D22E4FE22
:1057C000900B8CE075F012A424F2F582E5F034031E
:1057D000F583C083C082900B8BE0D082D08375F0BC
:1057E00003127560E5822EF582E43583F583E4F0DB
:1057F0000EEEB403CB900B8BE0FFA3E0FD129652AC
:10580000EF7037E4FE900B8CE075F012A424AEF537
:1058100082E5F03401F583C083C082900B8BE0D029
:1058200082D08375F003127560E5822EF582E4352F
:1058300083F583E4F00EEEB403CB22900B86EFF0F9
:10584000A3EDF0129652EF6003025A91900194E09A
:1058500024F950087003025953025A6B900AC9E0A8
:10586000FF75F0F8A42400F582E5F034B8F583EF75
:105870002583F583C083C08290056CE0FFD082D081
:105880008375F015127560C083C082900194E0FEAC
:10589000D082D08375F003127560E493900195F087
:1058A000900AC9E0FD75F0F8A42401F582E5F03412
:1058B000B8F583ED2583F58375F015EF12756075E6
:1058C000F003EE127560E493900000F0900AC9E0D6
:1058D000FF75F0F8A42402F582E5F034B8F583EF03
:1058E0002583F583C083C08290056CE0D082D0838D
:1058F00075F015127560C083C082900194E0D0826B
:10590000D08375F003127560E493900AD2F0900A88
:10591000C4E0FB90110893FA900195E08AF0A4FF8F
:10592000AEF07C007D1E1274A8900B88EFF0900002
:1059300000E08AF0A4FFAEF07C007D1E1274A890F7
:105940000B89EFF0EB90110893FF900AD2E08FF0F3
:105950000259EB12A22F7C007DC01274A8AA04ABDE
:10596000059013EE75F003EB127560EA75F003A471
:105970002583F583E493FF900AC4E090110893FE19
:10598000EF8EF0A4FFAEF07C007D1E1274A8900B89
:1059900088EFF09013EF75F003EB127560EA75F085
:1059A00003A42583F583E493FF900AC4E0901108D3
:1059B00093FEEF8EF0A4FFAEF07C007D1E1274A863
:1059C000900B89EFF0AE02AF039013F075F003EF88
:1059D000127560EE75F003A42583F583E493FF90C0
:1059E0000AC4E090110893FEEF8EF0A4FFAEF07CA5
:1059F000007D1E1274A8900B8AEFF0900B88E0FED9
:105A0000900B87E0FD75F012A424F2F582E5F034E6
:105A100003F583C083C082900B86E0FCD082D083E4
:105A200075F003127560EEF0900B89E0FE75F012D0
:105A3000EDA424F3F582E5F03403F58375F003EC6F
:105A4000127560EEF0900B87E075F012A424F4F567
:105A500082E5F03403F583C083C082900B86E0D0EA
:105A600082D08375F003127560EFF0900B87E075BC
:105A7000F012A42419F582E5F03400F583C083C048
:105A800082900B86E0D082D08375F003127560E4BB
:105A9000F02290032BE0FD90032AE07060E0FF7598
:105AA000F080EDA42400F582E5F034DCF583E58296
:105AB0002FF582E43583F583E493900BF5F09003A2
:105AC0002AE004F0E0FF75F080EDA42400F582E503
:105AD000F034DCF583E5822FF582E43583F583E449
